:020000040800F2
:1000000020040020E5000008D5030008AD03000827
:10001000D1030008AD020008190900080000000023
:10002000000000000000000000000000F9040008CB
:10003000B102000800000000ED03000821060008DE
:10004000FF000008FF000008FF000008FF00000894
:10005000FF000008FF000008FF000008FF00000884
:1000600000000000FF000008FF000008FF0000087B
:10007000FF000008FF000008FF000008000000006B
:10008000FF000008FF00000800000000FF0000085B
:10009000FF000008FF000008FF000008FF00000844
:1000A000FF000008FF000008FF000008FF00000834
:1000B000FF00000800000000000000000000000039
:1000C000FF00000800000000FF000008DFF810D06B
:1000D00000F0DAF800480047350A0008AFF3008066
:1000E000200400200648804706480047FEE7FEE758
:1000F000FEE7FEE7FEE7FEE7FEE7FEE7FEE7FEE7D8
:1001000085080008CD00000880EA010210B502F061
:100110000043400022D04A001FD0010E01EB1261C3
:10012000C0F35600C2F3560240F4000042F400024D
:10013000A0FB022000047F39140400D0401C50EAC8
:10014000124001D44000491EC2B20C0604EBD0108C
:10015000401C4008802A02D003E0002010BD20F09F
:100160000100002900DA0020184310BD30B480EAF5
:10017000010202F0004530F0004221F0004013D0AF
:1001800090B1C30DD40DC2F31601C0F31600E41AEA
:1001900041F4000140F400027D34914201D3641C1B
:1001A00000E04900002C02DA30BC002070474FF418
:1001B00000000023914201D3891A034340084FEA0B
:1001C0004101F7D151B1914202D14FF0004105E018
:1001D00002D24FF0010101E06FF0010103EBC450C6
:1001E000284430BC00F019B896230022114600F0D4
:1001F0001DB820F00040C10DC0F3160040F400000F
:100200007F2901DA00207047962903DCC1F19601AD
:10021000C84070479639884070470029A8BF70478A
:10022000401C490008BF20F00100704710B4B0FA2C
:1002300080FC00FA0CF050EA010404BF10BC7047C7
:1002400049B1CCF1200421FA04F411FA0CF118BFE1
:10025000012121430843A3EB0C01CB1D4FEA0061B0
:100260004FEA102042BF002010BC704700EBC35083
:1002700010440029A4BF10BC7047401C490008BFAF
:1002800020F0010010BC7047064C074D06E0E06806
:1002900040F0010394E8070098471034AC42F6D3CD
:1002A000FFF718FF480A0008680A000800BFFEE7C9
:1002B0007047F0B5002200230024CD7855B1CD78E9
:1002C000012D07D0CD78022D04D0CD78032D01D09B
:1002D0000025CD704D793DB14D79012D04D04D797A
:1002E000022D01D000254D710D7925B10D79012D1B
:1002F00001D000250D718D78012D07D08D78022D4C
:1003000004D08D78022D01D002258D7000223DE0B1
:10031000012505FA02F30D8805EA03049C4234D155
:10032000CD78012D02D0CD78022D16D185685700E9
:100330000326BE40B54385608D785600B54086687B
:1003400035438560858801269640B543858085883C
:100350000E799640B6B2354385800568570003266E
:10036000BE40B5430560CD785600B54006683543BC
:100370000560C56857000326BE40B543C5604D798A
:100380005600B540C6683543C560521C102ABFD31D
:10039000F0BD816170474FF6FF7101800021C1708F
:1003A00002218170002101714171704700BFFEE799
:1003B00029B1064A52680243044B5A6004E0034ADA
:1003C00052688243014B5A6070470000002004E0ED
:1003D00000BFFEE77047000002490143024A116076
:1003E000704700000000FA050CED00E070470000C7
:1003F00029B1064A52690243044B5A6104E0034A98
:1004000052698243014B5A6170470000001002405C
:1004100010B50246002300210020234C646804F438
:100420008033214CE16A21F0074103B939E01046DD
:100430001D4C646804F4003404B140081B4CA04215
:1004400003D91B4CA04200D22BE01A4CA04205D984
:10045000194CA04202D241F0807122E0174CA04218
:1004600005D9174CA04202D241F0007119E0144C9A
:10047000A04205D9134CA04202D241F0407110E0D5
:10048000114CA04205D9114CA04202D241F080612A
:1004900007E00E4CA04204D90D4CA04201D241F01D
:1004A000A061014CE16210BD0010024060823B007F
:1004B000404B4C0080584F00105E5F009435770031
:1004C000101B7F0020BCBE00286BEE0030D73D0122
:1004D000D8E9DC01012806D10649496D41F0300117
:1004E000044A516505E00349496D21F03001014A94
:1004F0005165704700100240704710B500F002F8D7
:1005000010BD00001CB50020019000903648006826
:1005100040F480303449086000BF3348006800F47C
:10052000003000900198401C0190009818B9019883
:10053000B0F5405FF1D12C48006800F4003010B1F4
:100540000120009001E000200090009801284AD18D
:1005500040F253102549086023484068224948600A
:100560000846406820F4605048600846406848608B
:100570000846406820F4E0604860084640684860EB
:10058000084640681A4908401749486008464068CC
:1005900040F4541048601748FFF73AFF12480068CB
:1005A00040F080701049086000BF0F48006800F0FC
:1005B00000700028F9D00120FFF78CFF0A4840683E
:1005C00020F00300084948600846406840F00200F7
:1005D000486000BF0448406800F00C000828F9D1CA
:1005E0000020FFF777FF1CBD0010024000200240F2
:1005F000FFFFC01F00127A00042808D14FF0E0214D
:10060000096941F004014FF0E022116107E04FF069
:10061000E021096921F004014FF0E02211617047E7
:10062000704700002DE9F04F002200200023002138
:10063000002500260027002484468046DFF8249207
:10064000D9F8049009F00C0222B1042A22D0082A19
:1006500070D126E0DFF80C92D9F8309009F00079DB
:10066000B9F1000F0FD0DFF8FC91D9F8549009F4DC
:100670000079B9F1000F06D0DFF8EC91DFF8ECA1BA
:10068000CAF8009005E0DFF8E891DFF8E0A1CAF8C9
:100690000090D0E0DFF8D891DFF8D0A1CAF8009040
:1006A000C9E0DFF8C091D9F8049009F48033DFF88D
:1006B000B491D9F8041001F0C049B9F1000F07D185
:1006C00001F47019B9F5701F02D04FF0020901E072
:1006D0004FF0010901F0C04AC1F3834B4BEA5A6A5B
:1006E00009EB0A00DFF87C91D9F82C9009F000455D
:1006F000B5F1004F54D1DFF86C91D9F82C90DFF8A8
:1007000074A109EA0A06DFF85C91D9F82C9009F087
:10071000F007DFF85091D9F82C9009F0070400BFDA
:10072000062C17D2DFE804F003070A0D10134FF070
:10073000010812E078E04FF002080EE04FF00408E4
:100740000BE04FF0080808E04FF0100805E04FF00C
:10075000200802E04FF0010800BF00BF00BF13B93E
:10076000DFF814C10DE0DFF8FC90D9F8049009F42B
:100770000039B9F1000F02D0DFF8FCC001E0DFF86A
:10078000F0C04FEA162909FB0CF94FEA171A0AFBC9
:1007900008FAB9FBFAF9DFF8D4A0CAF8009042E0F1
:1007A000DFF8C090D9F80490DFF8D0A009EA0A0079
:1007B00000F0C049B9F1000F07D100F47019B9F584
:1007C000701F02D04FF0020901E04FF0010900F064
:1007D000C04AC0F3834B4BEA5A6A09EB0A0043B99B
:1007E000DFF8949000FB09F9DFF880A0CAF80090C8
:1007F00019E0DFF87090D9F8049009F40039B9F1E4
:10080000000F08D0DFF8709000FB09F9DFF85CA05A
:10081000CAF8009007E0DFF8589000FB09F9DFF80C
:100820004CA0CAF8009006E0DFF84490DFF83CA046
:10083000CAF8009000BF00BFDFF82890D9F80490F4
:10084000C9F30319DFF838A01AF80920DFF81C9063
:10085000D9F8009029FA02F9DFF810A0CAF8009040
:10086000BDE8F08F00100240006CDC0208000020A0
:1008700000127A0000FF010000093D0000003C600A
:100880000C00002010B51648006840F00100144923
:100890000860084640681349084011494860084606
:1008A0000068114908400E4908600846006820F4B5
:1008B00080200860084640680C49084008494860A4
:1008C0000846006B0A490840054908634FF41F00B9
:1008D0008860FFF712FE4FF000600649086010BD07
:1008E000001002400C00FFE8FFFFF6FEFFFF0017BC
:1008F00000FFFEFE08ED00E010B54FF44070FFF77A
:100900006BFD01210802FFF753FDFFF78BFE00F09E
:1009100065F800F045F810BD00BFFEE702E008C82A
:10092000121F08C1002AFAD170477047002001E069
:1009300001C1121F002AFBD17047000070B50446A8
:1009400027E0154801681548FFF7DEFB0646FFF76C
:1009500050FC4FF0E02148610020886108460069A2
:1009600040F00100086100BF4FF0E020056905F08C
:10097000010018B105F480300028F5D04FF0E020D8
:10098000006920F001004FF0E0210861002088613B
:10099000641E002CD5D170BD0000002000007A44F8
:1009A0001CB501218804FFF723FD01210A48FFF748
:1009B000F0FC6846FFF7EFFC0120ADF800008DF871
:1009C00003008DF8040002208DF8020069460248F9
:1009D000FFF76FFC1CBD00000004004810B56FF06D
:1009E0000400FFF709FE09480068FFF7FDFB044615
:1009F0000749FFF7BBFB074908600749054800683E
:100A0000FFF782FB0549086010BD000008000020C8
:100A10000024F44A0000002000007A440400002072
:100A20000348008880F001000149088070470000F9
:100A300014040048FFF760FF05E0FFF7F1FF4FF4F3
:100A40009670FFF77BFFF8E7680A000800000020B7
:100A50001C0000001C090008840A00081C0000207B
:100A6000040400002C090008000000000000000041
:100A7000000E270700000000000000000102030430
:040A80000607080954
:04000005080000CD22
:00000001FF
