:020000040800F2
:1000000028040020E5000008950400086B0400089F
:1000100091040008250300082312000800000000D6
:10002000000000000000000000000000D90A0008E5
:1000300029030008000000001D050008010C00084D
:10004000FF000008FF000008FF000008FF00000894
:10005000FF000008FF000008FF000008FF00000884
:1000600000000000FF000008FF000008FF0000087B
:10007000FF000008FF000008FF000008000000006B
:10008000FF000008050F000800000000FF00000846
:10009000FF000008FF000008FF000008FF00000844
:1000A000FF000008FF000008FF000008191000080A
:1000B000FF00000800000000000000000000000039
:1000C000FF00000800000000FF000008DFF810D06B
:1000D00000F016F900480047F5190008AFF300805A
:1000E000280400200648804706480047FEE7FEE750
:1000F000FEE7FEE7FEE7FEE7FEE7FEE7FEE7FEE7D8
:10010000650E0008CD0000082DE9F05F05460020CF
:1001100092469B4688460646814640241BE0284678
:1001200041464746224600F0A4F853465A46C01AB4
:10013000914110D311461846224600F08BF82D1A33
:1001400067EB01084F4622460120002100F082F8AB
:1001500017EB00094E41201EA4F10104DFDC4846E4
:1001600031462A464346BDE8F09F80EA010210B5B9
:1001700002F00043400022D04A001FD0010E01EBE4
:100180001261C0F35600C2F3560240F4000042F47C
:100190000002A0FB022000047F39140400D0401CA0
:1001A00050EA124001D44000491EC2B20C0604EBD2
:1001B000D010401C4008802A02D003E0002010BD6F
:1001C00020F00100002900DA0020184310BD30B4EF
:1001D00080EA010202F0004530F0004221F00040C8
:1001E00013D090B1C30DD40DC2F31601C0F31600A5
:1001F000E41A41F4000140F400027D34914201D33D
:10020000641C00E04900002C02DA30BC002070477A
:100210004FF400000023914201D3891A03434008A0
:100220004FEA4101F7D151B1914202D14FF0004163
:1002300005E002D24FF0010101E06FF0010103EB94
:10024000C450284430BC00F024B896230022114644
:1002500000F028B8202A04DB203A00FA02F100203E
:1002600070479140C2F1200320FA03F319439040F4
:100270007047202A04DB203A21FA02F0002170475F
:1002800021FA02F3D040C2F12002914008431946FE
:1002900070470029A8BF7047401C490008BF20F0E4
:1002A0000100704710B4B0FA80FC00FA0CF050EA7C
:1002B000010404BF10BC704749B1CCF1200421FAFD
:1002C00004F411FA0CF118BF012121430843A3EBF8
:1002D0000C01CB1D4FEA00614FEA102042BF002005
:1002E00010BC704700EBC35010440029A4BF10BCE1
:1002F0007047401C490008BF20F0010010BC704747
:10030000064C074D06E0E06840F0010394E8070062
:1003100098471034AC42F6D3FFF7DCFE6C1A0008A5
:100320008C1A000800BFFEE77047F0B500220023DA
:100330000024CD7855B1CD78012D07D0CD78022D90
:1003400004D0CD78032D01D00025CD704D793DB17D
:100350004D79012D04D04D79022D01D000254D712C
:100360000D7925B10D79012D01D000250D718D7804
:10037000012D07D08D78022D04D08D78022D01D06B
:1003800002258D7000223DE0012505FA02F30D885B
:1003900005EA03049C4234D1CD78012D02D0CD78FA
:1003A000022D16D1856857000326BE40B5438560EF
:1003B0008D785600B540866835438560858801266E
:1003C0009640B543858085880E799640B6B2354310
:1003D0008580056857000326BE40B5430560CD788B
:1003E0005600B540066835430560C56857000326CA
:1003F000BE40B543C5604D795600B540C66835432B
:10040000C560521C102ABFD3F0BDF0B500230024F4
:100410004D07ED0E02FA05F3CE1000F1200555F858
:1004200026504E07F70E0F26BE40B543CF1000F101
:10043000200646F82750CE1000F1200555F826502A
:1004400045EA0304CE1000F1200545F82640F0BD32
:10045000816170474FF6FF7101800021C170022158
:100460008170002101714171704700BFFEE70000FB
:1004700029B1064A52680243044B5A6004E0034A19
:1004800052688243014B5A6070470000002004E02C
:1004900000BFFEE77047000070B5002100230F2267
:1004A000C47804B3154C246804F4E064C4F5E06433
:1004B000210AC1F10403CA40447804FA03F18478A4
:1004C0001440214309010E4C0678A155047804F02C
:1004D0001F050124AC4005786D11AD0005F1E02544
:1004E000C5F8004109E0047804F01F050124AC4080
:1004F000044D0678761145F8264070BD0CED00E0FD
:1005000000E400E080E100E002490143024A11609A
:10051000704700000000FA050CED00E07047000095
:100520002DE9F04117A000F07FFE26A129A000F0E0
:100530007BFE2EA12FA000F077FE34A138A000F0A2
:1005400073FE3D480468001D0568001D06683B48B1
:1005500000683B49B0FBF1F739463AA000F064FE71
:1005600044A000F061FE23462A4631464AA000F02E
:100570005BFE4FA000F058FE02A000F055FEBDE863
:10058000F08100002D2D2D2D2D2D2D2D2D2D2D2DDE
:100590002D2D2D2D2D2D2D2D2D2D2D2D2D2D2D2D8B
:1005A0002D2D2D2D2D2D2D2D2D2D2D2D2D2D2D2D7B
:1005B0002D2D2D2D2D2D2D2D2D2D2D2D2D2D2D2D6B
:1005C0002D0D0A00E4B8B2E58FA3E9809AE8AEAF3A
:1005D000000000002D3EE4BE8BE7A88BE5908DE780
:1005E000A7B03A2025730D0A0000000076312E30A6
:1005F0002E3200002D3EE4BE8BE7A88BE78988E60B
:100600009CAC3A2025730D0A0000000032303231D4
:10061000E5B9B434E69C883135E697A500000000C2
:100620002D3EE58F91E5B883E697A5E69C9F3A209D
:1006300025730D0A00000000E8F7FF1F10000020DE
:1006400040420F002D3E4350553A2041543332462C
:10065000343231433854372C204C51465034382CE6
:1006600020E4B8BBE9A2913A2025644D487A0D0AEE
:10067000000000002D3E464C4153483A2036344B92
:10068000627974652C205352414D3A2031364B62C9
:100690007974650D0A0000002D3E5549443A202525
:1006A000303858202530385820253038580A0D0069
:1006B0002D3EE5BA93E78988E69CAC3A2056312E68
:1006C000332E300D0A00000029B1064A5269024358
:1006D000044B5A6104E0034A52698243014B5A6158
:1006E000704700000010024029B1064AD269024357
:1006F000044BDA6104E0034AD2698243014BDA61B8
:10070000704700000010024029B1064A9269024376
:10071000044B9A6104E0034A92698243014B9A6157
:1007200070470000001002402DE9F04F002600271E
:10073000B4460024A046A146002200210025002343
:10074000DFF88CA2DAF804A00AF00C0222B1042A25
:100750001ED0082A73D120E0DFF874A2DAF830A0A6
:100760000AF0007ABAF1000F0DD0DFF864A2DAF8CF
:1007700054A00AF4007ABAF1000F04D0DFF854A2B2
:10078000C0F800A003E0DFF850A2C0F800A0A9E084
:10079000DFF844A2C0F800A0A4E0DFF834A2DAF841
:1007A00004A00AF48035DFF828A2DAF82CA00AF0B9
:1007B0000046B6F1004F52D1DFF814A2DAF82CA0AF
:1007C000DFF818B20AEA0B07DFF804A2DAF82CA067
:1007D0000AF0F00CDFF8F8A1DAF82CA00AF0070410
:1007E00000BF062C16D2DFE804F00306090C0F1236
:1007F0004FF0010911E04FF002090EE04FF004093B
:100800000BE04FF0080908E04FF0100905E04FF049
:10081000200902E04FF0010900BF00BF00BF15B979
:10082000DFF8BC810EE0DFF8A8A1DAF804A00AF432
:10083000003ABAF1000F03D0DFF8A48102E04CE0E7
:10084000DFF894814FEA172A0AFB08FA4FEA1C1BCB
:100850000BFB09FBBAFBFBFAC0F800A03CE0DFF899
:1008600070A1DAF804A0DFF87CB10AEA0B0101F00C
:10087000C04ABAF1000F07D101F4701ABAF5701F1F
:1008800002D04FF0020A01E04FF0010A01F0C04B24
:10089000C1F3834E4EEA5B6B0AEB0B0135B9DFF80F
:1008A00040A101FB0AFAC0F800A015E0DFF820A182
:1008B000DAF804A00AF4003ABAF1000F06D0DFF823
:1008C00020A101FB0AFAC0F800A005E0DFF808A1AA
:1008D00001FB0AFAC0F800A004E0DFF8FCA0C0F8B1
:1008E00000A000BF00BFDFF8E8A0DAF804A0CAF358
:1008F0000212DFF8DCA0DAF804A00AF0800ABAF1EC
:10090000000F04D0DFF8E0A01AF802A001E04FF0D9
:10091000000A5346D0F800A02AFA03FAC0F804A04F
:10092000DFF8ACA0DAF804A0CAF30122DFF8A0A037
:10093000DAF804A00AF4806ABAF1000F04D0DFF8F4
:10094000A8A01AF802A001E04FF0000A5346D0F820
:1009500004A02AFA03FAC0F808A0DFF874A0DAF8B5
:1009600004A0CAF3C122DFF868A0DAF804A00AF4F0
:10097000005ABAF1000F04D0DFF86CA01AF802A0F8
:1009800001E04FF0000A5346D0F804A02AFA03FA17
:10099000C0F80CA0DFF838A0DAF804A0CAF381325E
:1009A000DFF82CA0DAF804A00AF0805ABAF1000FA0
:1009B00001D042F00402DFF834A01AF80230D0F877
:1009C0000CA0BAFBF3FAC0F810A0BDE8F08F00004D
:1009D00000100240006CDC0200127A0000FF0100EF
:1009E00000093D0000003C605C1A0008641A000821
:1009F00010B50246002300210020234C646804F453
:100A00008033214CE16A21F0074103B939E01046F7
:100A10001D4C646804F4003404B140081B4CA0422F
:100A200003D91B4CA04200D22BE01A4CA04205D99E
:100A3000194CA04202D241F0807122E0174CA04232
:100A400005D9174CA04202D241F0007119E0144CB4
:100A5000A04205D9134CA04202D241F0407110E0EF
:100A6000114CA04205D9114CA04202D241F0806144
:100A700007E00E4CA04204D90D4CA04201D241F037
:100A8000A061014CE16210BD0010024060823B0099
:100A9000404B4C0080584F00105E5F00943577004B
:100AA000101B7F0020BCBE00286BEE0030D73D013C
:100AB000D8E9DC01012806D10649496D41F0300131
:100AC000044A516505E00349496D21F03001014AAE
:100AD0005165704700100240704710B500F002F8F1
:100AE00010BD00001CB50020019000903648006841
:100AF00040F480303449086000BF3348006800F497
:100B0000003000900198401C0190009818B901989D
:100B1000B0F5405FF1D12C48006800F4003010B10E
:100B20000120009001E000200090009801284AD1A7
:100B300040F2531025490860234840682249486024
:100B40000846406820F460504860084640684860A5
:100B50000846406820F4E060486008464068486005
:100B6000084640681A4908401749486008464068E6
:100B700040F4541048601748FFF73AFF12480068E5
:100B800040F080701049086000BF0F48006800F016
:100B900000700028F9D00120FFF78CFF0A48406858
:100BA00020F00300084948600846406840F0020011
:100BB000486000BF0448406800F00C000828F9D1E4
:100BC0000020FFF777FF1CBD00100240002002400C
:100BD000FFFFC01F00127A00042808D14FF0E02167
:100BE000096941F004014FF0E022116107E04FF084
:100BF000E021096921F004014FF0E0221161704702
:100C0000704700002DE9F04F002200200023002152
:100C1000002500260027002484468046DFF8249221
:100C2000D9F8049009F00C0222B1042A22D0082A33
:100C300070D126E0DFF80C92D9F8309009F00079F5
:100C4000B9F1000F0FD0DFF8FC91D9F8549009F4F6
:100C50000079B9F1000F06D0DFF8EC91DFF8ECA1D4
:100C6000CAF8009005E0DFF8E891DFF8E0A1CAF8E3
:100C70000090D0E0DFF8D891DFF8D0A1CAF800905A
:100C8000C9E0DFF8C091D9F8049009F48033DFF8A7
:100C9000B491D9F8041001F0C049B9F1000F07D19F
:100CA00001F47019B9F5701F02D04FF0020901E08C
:100CB0004FF0010901F0C04AC1F3834B4BEA5A6A75
:100CC00009EB0A00DFF87C91D9F82C9009F0004577
:100CD000B5F1004F54D1DFF86C91D9F82C90DFF8C2
:100CE00074A109EA0A06DFF85C91D9F82C9009F0A2
:100CF000F007DFF85091D9F82C9009F0070400BFF5
:100D0000062C17D2DFE804F003070A0D10134FF08A
:100D1000010812E078E04FF002080EE04FF00408FE
:100D20000BE04FF0080808E04FF0100805E04FF026
:100D3000200802E04FF0010800BF00BF00BF13B958
:100D4000DFF814C10DE0DFF8FC90D9F8049009F445
:100D50000039B9F1000F02D0DFF8FCC001E0DFF884
:100D6000F0C04FEA162909FB0CF94FEA171A0AFBE3
:100D700008FAB9FBFAF9DFF8D4A0CAF8009042E00B
:100D8000DFF8C090D9F80490DFF8D0A009EA0A0093
:100D900000F0C049B9F1000F07D100F47019B9F59E
:100DA000701F02D04FF0020901E04FF0010900F07E
:100DB000C04AC0F3834B4BEA5A6A09EB0A0043B9B5
:100DC000DFF8949000FB09F9DFF880A0CAF80090E2
:100DD00019E0DFF87090D9F8049009F40039B9F1FE
:100DE000000F08D0DFF8709000FB09F9DFF85CA075
:100DF000CAF8009007E0DFF8589000FB09F9DFF827
:100E00004CA0CAF8009006E0DFF84490DFF83CA060
:100E1000CAF8009000BF00BFDFF82890D9F804900E
:100E2000C9F30319DFF838A01AF80920DFF81C907D
:100E3000D9F8009029FA02F9DFF810A0CAF800905A
:100E4000BDE8F08F00100240006CDC0210000020B2
:100E500000127A0000FF010000093D0000003C6024
:100E60001400002010B51648006840F00100144935
:100E70000860084640681349084011494860084620
:100E80000068114908400E4908600846006820F4CF
:100E900080200860084640680C49084008494860BE
:100EA0000846006B0A490840054908634FF41F00D3
:100EB0008860FFF712FE4FF000600649086010BD21
:100EC000001002400C00FFE8FFFFF6FEFFFF0017D6
:100ED00000FFFEFE08ED00E010B54FF44070FFF794
:100EE00013FB01210802FFF7C3FAFFF78BFE00F0A6
:100EF00073FC00F053FC00F091FC00F037FC00F0B4
:100F0000C3FC10BD10B50121054800F01CF830B13C
:100F10000121034800F008F801200249087010BDC3
:100F20000010004008000020CA430282704721B12F
:100F3000028842F00102028004E002884FF6FE734C
:100F40001A400280704730B502460020002300247A
:100F5000158A05EA0103958905EA010413B10CB16C
:100F6000012000E0002030BD1AB183890B4383814A
:100F700002E083898B43838170470000002202884E
:100F8000194B98420ED0194B98420BD0184B9842EF
:100F900008D0184B984205D0174B984202D0174BF7
:100FA000984205D14FF68F731A408B8813439AB23B
:100FB000134B984204D04FF6FF431A408B891A43D3
:100FC00002808B68C3620B880385074B984205D06B
:100FD000084B984202D0084B984201D18B7B038684
:100FE0000123838270470000002C01400020004054
:100FF000004001400044014000480140000400401E
:10100000001000404FF6FF71816000210180818156
:10101000416081737047000008B50020009040F2E5
:101020002551074800F030F840B12021044800F075
:1010300009F8034800F0ECF8C0B2009008BD0000C9
:101040000038014001F40072B2F5007F00D100BF0A
:10105000CA430280704721B1828942F400528281E2
:1010600004E082894DF6FF731A4082817047024680
:101070000020B1F5007F00D100BF13880B400BB1F9
:10108000012000E00020704770B5024600240023D4
:101090000025002040F66A16B14200D100BFC1F31E
:1010A000421501F01F03012606FA03F3012D02D1B8
:1010B0009689334006E0022D02D1168A334001E0C2
:1010C000968A33400C12012606FA04F4168834403E
:1010D00013B10CB1012000E0002070BDF0B5034653
:1010E000002400260025002040F66A17B94200D1EE
:1010F00000BF1846C1F3421401F01F06012707FA8A
:1011000006F5012C01D10C3004E0022C01D1103085
:1011100000E014301AB107682F43076002E0076847
:10112000AF430760F0BD00002DE9F04F89B00546E0
:101130000E46002400200790834682468146B089EF
:1011400000B100BFA9462C8A4CF6FF700440F0881D
:1011500004432C82AC894EF6F3100440B0883189E8
:101160000843718908430443AC81AC8A4FF6FF40C1
:101170000440B0890443AC8202A8FFF7D5FA2348A3
:10118000814502D10598079001E0049807904FF43B
:101190007A710798A0FB017001461022002338469F
:1011A000FEF7B2FFCDE9000137683A460023FEF7AB
:1011B000ABFF04464FF47A70B4FBF0FBB4FBF0F1E4
:1011C00000FB11404FEA001A4FF47A70BAFBF0F1BD
:1011D00000FB11A0B0F5FA7F04D24FF47A70BAFB8D
:1011E000F0FA0CE04FF47A70BAFBF0F000F1010A6B
:1011F000BAF1100F03D34FF0000A0BF1010B4AEACA
:101200000B10288109B0BDE8F08F000000380140C4
:1012100001468888C0F308007047C1F30802828045
:10122000704700BFFEE700000FB4054B10B503A9DF
:10123000044A029800F018F810BC5DF814FB000096
:10124000D11900082400002002E008C8121F08C1BC
:10125000002AFAD170477047002001E001C1121F37
:10126000002AFBD1704700002DE9FF4F8DB00F46DB
:101270000546002606E025280BD0DDE90F12904731
:101280006D1C761C28780028F5D111B03046BDE8D9
:10129000F08F0024A246A1460122E94900E0044360
:1012A00015F8013F203B02FA03F00842F7D12878F5
:1012B0002A2810D06FF02F022878A0F130010929D8
:1012C00014D80AEB8A0102EB410144F0020400EB5E
:1012D000010A6D1CF0E701CF5FEA000A03D544F470
:1012E0000054CAF1000A44F002046D1C28782E282C
:1012F00017D115F8010F44F004042A280ED06FF01E
:101300002F022878A0F1300109290AD809EB8901B8
:1013100002EB410100EB01096D1CF2E757F8049B59
:101320006D1C28786C280FD006DC4C2817D0682854
:101330000DD06A2814D104E0742810D07A280FD177
:101340000DE044F400140AE044F4801401E044F495
:1013500040146978814202D104F580146D1C6D1C23
:1013600028786E281ED00CDC632830D004DC0028DE
:101370008BD0582811D19FE0642867D069280CD100
:1013800064E073282DD004DC6F2872D0702804D15B
:1013900094E075286ED078286DD0DDE90F12904763
:1013A000761C4BE1C4F30250022806D0032809D072
:1013B000042801CF09D0066040E101CFF117C0E950
:1013C00000613BE101CF068038E1067036E117F895
:1013D000040B8DF8000000208DF80100EB46012081
:1013E00003E057F804BB4FF0FF3061074FF00001F6
:1013F00002D40DE008F10101884649450FDA804525
:10140000F8DB1BF808100029F4D108E008F101010D
:1014100088468142FADB1BF808100029F6D1DDE985
:101420000F23AAEB08008146214600F031F9304431
:1014300000EB080604E0DDE90F121BF8010B9047F2
:10144000B8F10108F7D221464846F2E00A21C4F378
:1014500002524FF0000B0891022A04D001CFC117AD
:10146000032A09D00AE0FF1D27F00707F7E8020169
:1014700008E02CE01EE01FE000B2C117042A01D1F1
:1014800040B2C117021E71F1000206DA0023D0EB50
:10149000030063EB01012D2202E0220504D52B227B
:1014A0008DF82420012203E0E20701D02022F7E793
:1014B000904653E00A210BE0102109E010214FF083
:1014C000000B44F004044FF00809089103E00821E0
:1014D0004FF0000B0891C4F30252022A04D001CF4E
:1014E0000021032A06D006E0FF1D27F00707F7E8D2
:1014F000020103E080B2042A00D1C0B24FF000081C
:1015000022072BD52A78702A07D0DDF820C08CF06E
:10151000100C5CEA0B0C05D00EE040228DF8242064
:10152000012208E050EA010306D030238DF8243070
:101530008DF8252002229046089B83F0080353EA89
:101540000B030BD150EA010201D1620706D530220C
:101550008DF824204FF00108A9F101092A78582AB2
:1015600004D038A20B9208AA0A920BE03AA2F9E73B
:101570005B46089AFEF7C8FD0B9B9B5C0A9A521EBD
:101580000A92137050EA0102F2D10A98ADEB000002
:1015900000F1200B600702D524F4803401E04FF005
:1015A0000109D94502DDA9EB0B0000E0002000EBAA
:1015B0000B0141440890AAEB010AE00306D4DDE9DF
:1015C0000F232146504600F063F806444FF000090F
:1015D00008E009A911F80900DDE90F12904709F1A7
:1015E0000109761CC145F4DBE0030CD5DDE90F23CE
:1015F0002146504600F04CF8064404E0DDE90F12A5
:1016000030209047761C0899481E08900029F5DC88
:1016100008E00A980A990078491C0A91DDE90F123E
:101620009047761CBBF10001ABF1010BF1DC2146C8
:101630005046DDE90F2300F019F806446D1C21E641
:101640000928010030313233343536373839616298
:10165000636465660000000030313233343536375C
:101660003839414243444546000000002DE9F0412D
:10167000044600251E461746880404D405E0394672
:101680002020B0476D1C641EF9D52846BDE8F081C6
:101690002DE9F041044600251E469046C80301D5B9
:1016A000302700E02027880404D505E0414638466D
:1016B000B0476D1C641EF9D52846BDE8F0810000D6
:1016C00000B587B001214804FEF7FEFF0121880321
:1016D000FFF71AF805A8FEF7BDFE02208DF81700E7
:1016E0008DF816000002ADF8140000208DF81800E7
:1016F00005A94FF09040FEF718FE4FF48060ADF85A
:10170000140001208DF8190005A94FF09040FEF754
:101710000CFE01220921C806FEF777FE01220A21EC
:101720004FF09040FEF771FE4FF4E1300190002041
:10173000ADF80800ADF80A00ADF80C00ADF81000E7
:101740000C20ADF80E0001A90748FFF7EDFC0122BF
:1017500040F225510448FFF7C1FC01210248FFF780
:101760007AFC07B000BD0000003801401CB5012123
:10177000C804FEF7A9FF6846FEF76CFE4FF4005060
:10178000ADF8000000208DF803008DF805006946D3
:101790000148FEF7CAFD1CBD000800481CB5012128
:1017A0008804FEF791FF01210A48FEF751FE6846C2
:1017B000FEF750FE0120ADF800008DF803008DF813
:1017C000040002208DF8020069460248FEF7ADFDD4
:1017D0001CBD00000004004810B56FF00400FFF7C6
:1017E000FBF909480068FEF730FD04460749FEF79B
:1017F000EEFC07490860074905480068FEF7B5FC9C
:101800000549086010BD0000100000200024F44AC3
:101810000000002000007A440400002000B585B0DC
:1018200001211020FEF760FF01A8FFF7EBFB42F259
:101830000F7003907720ADF804000020ADF8100081
:10184000029001A90F48FFF799FB01210D48FFF70E
:101850006BFB012211460B48FFF786FB012109486B
:10186000FFF765FB11208DF8000000208DF80100C6
:101870008DF8020001208DF803006846FEF70CFE8B
:1018800005B000BD0010004010B5FFF719FF00F0D3
:101890008DF810BD3948007830B1012810D00228E9
:1018A0001ED0032866D137E03548008800F4005088
:1018B00028B900203349087001203049087059E0E8
:1018C0002F48008800F4005018B902202B490870F6
:1018D00002E000202949087000202B49088049E0D7
:1018E0002748008800F4005020B1002023490870E8
:1018F0000120704724480088942807DD00202249F1
:10190000088003201D4908700220F2E71E48008865
:10191000401C1D4908802DE01948008800F4005043
:1019200018B100201549087023E01648007888B1E6
:1019300015480088401C144908800846008809287A
:1019400017DD002008800E48008800F4005080B9A0
:101950000120CEE70C480088401C0B49088008464F
:101960000088B0F5967F04DB00200880012005493F
:10197000087000BF00BF0020BBE700000A00002085
:10198000100800480E0000200C0000200120014932
:1019900008607047180400480348008880F0010080
:1019A00001490880704700001404004808B51B2056
:1019B0008DF8000001208DF8010000208DF8020054
:1019C00001208DF803006846FEF766FD08BD0000A3
:1019D00070B504460D46A1B20548FFF71EFC00BFD6
:1019E00040210348FFF743FB0028F9D0204670BD93
:1019F00000380140FFF770FAFEF792FD17E00C483F
:101A00000078A0B100200A490870FFF743FF0446A0
:101A1000012C05D1FFF7C0FF06A0FFF705FC06E08B
:101A2000022C04D1FFF7B2FF07A0FFF7FDFBE6E7AA
:101A3000080000202D3EE68C89E994AEE58D95E501
:101A400087BB0D0A000000002D3EE68C89E994AEAC
:101A5000E995BFE68C890D0A00000000010203042D
:101A60000607080902040608020C08108C1A000870
:101A7000000000202800000048120008B41A0008E6
:101A80002800002000040000581200080000000098
:101A9000000000000000000000000000000E27070A
:101AA000000000000000000001020304060708090E
:041AB0000000000032
:04000005080000CD22
:00000001FF
